:020000040000FA
:100000000C94CA040C945A140C9433140C94F204F7
:100010000C94F2040C94F2040C94F2040C94F20488
:100020000C94F2040C94F2040C94F2040C94F20478
:100030000C94F2040C94F2040C94F2040C94F20468
:100040000C94E9130C94F2040C94A7140C948114EE
:100050000C94F2040C94F2040C94F2040C94F20448
:100060000C94D9140C94F204084AD73B3BCE016E91
:1000700084BCBFFDC12F3D6C74319ABD56833DDAFF
:100080003D00C77F11BED9E4BB4C3E916BAAAABE0E
:10009000000000803F0000000000240027002A002C
:1000A000FB00003E000B00360001000200030000D0
:1000B00000650054FFEF0000FA80000B128200017F
:1000C000000200000000000000000000000000002E
:1000D00000280000FFFF4581FFFFFA7200000000CA
:1000E000000003E80000000100017FFFFFFE800127
:1000F000001B0000000000000000000000000000E5
:10010000004000004000000002CB47A22000000099
:10011000200000000000000040000000600000001F
:1001200041FF000000000B2A00001655000021824C
:10013000FD872650FD800000001F000000058000A4
:1001400000000000000100000002000000030000A9
:10015000400000000000046F0002653200005EC035
:10016000400000000000000000000000000000004F
:10017000FB8C6F5DFD5D08D9007C733B006C12CC7D
:100180003200139D3200D0D632000800400001F446
:10019000FFE68079020000000000D0D600002710A2
:1001A000FB00000040000000000000000000000014
:1001B000000000010000000000000100010000003C
:1001C0000000FA36FFBC308E0005FBF0FFD95BC89B
:1001D000FFD09ABE000010A9FFF41EB200CEBBF7FC
:1001E0000000000100000004000200020200000CF8
:1001F000FFC280000001800000CF800040000000AE
:1002000000000000000000000000060000000014D4
:1002100000000000000000000000000000000000DE
:1002200000000000000000000000000000000000CE
:100230000923A135000000000000000000000000BC
:1002400000000000033F68B6793528BCC67ED16C3B
:100250008000FFFF400000000000B26A00000000C4
:10026000000000000000000000003FF0000000302F
:10027000000000000000000000000000000000007E
:10028000000000000000000000000000000040002E
:100290000000254D002F706D000005AE000C02D04F
:1002A0000000000000650054FFEF000000000000A7
:1002B000000001000044000100058BC100000100A6
:1002C000000000000065000000540000FFEF000087
:1002D000000000000000000000000000000000001E
:1002E000000000000000000000000000000000000E
:1002F00000000000000000000000000000000000FE
:1003000000000001000000020000000000000000EA
:1003100000000000000000000000000000000000DD
:1003200000000000000000000000000000000000CD
:10033000001B0000000000000000000000000000A2
:1003400000000000000000000000000000000000AD
:10035000000000000000000000000000000000009D
:10036000001B000000000000000000000000000072
:10037000000000000000000000000000000000007D
:10038000000000000000000000000000000000006D
:10039000000000000000000000000000000000005D
:1003A000D8DCBAA2F1DEB2B8B4A88191F74A907F46
:1003B000916AF3F9DBA8F9B0BAA080F2CE81F3C25A
:1003C000F1C1F2C3F3CCA2B280F1C6D880BAA7DFE4
:1003D000DFDFF2A7C3CBC5B6F087A2942448703CF8
:1003E00095406834589B78A2F183922D557DD8B101
:1003F000B4B8A1D09180F270F370F27C80A8F101C2
:10040000B09887D943D886C988BAA1F20EB8978028
:10041000F1A9DFDFDFAADFDFDFF2AA4CCD6CA90C88
:10042000C92C97979797F1A989264666B0B4BA80E8
:10043000ACDEF2CAF1B28C02A9B69800890E161E83
:10044000B8A9B4992C547CB08AA896365676F1B9DE
:10045000AFB4B083C0B8A89711B18F98B9AFF024EA
:100460000844106418F1A329557DAF83B593AFF00C
:10047000002850F1A3869F61A6DADEDFD9FAA386B1
:1004800096DB31A6D9F8DFBAA68FC2C5C7B28CC138
:10049000B8A2DFDFDFA3DFDFDFD8D8F1B8A8B286EC
:1004A000B4980D355DB8AA98B0872D353DB2B6BA6F
:1004B000AF8C96198F9FA70E161EB49AB8AA872CD8
:1004C000547CB9A3DEDFDFA3B180F2C4CDC9F1B89B
:1004D000A9B499830D355D89B9A32D557DB593A335
:1004E0000E161EA92C547CB8B4B0F19783A81184C1
:1004F000A50998A383F0DA240844106418D8F1A55C
:1005000029557DA58595021A2E3A565A4048F9F389
:10051000A3D9F8F098832408441064189782A8F1AE
:1005200011F098A2240844106418DAF3DED883A5E9
:100530009401D9A302F1A2C3C5C7D8F18492A24DF8
:10054000DA2AD84869D92AD86855DA32D85071D908
:1005500032D8705DDA3AD85879D93AD87893A34D21
:10056000DA2AD84869D92AD86855DA32D85071D9E8
:1005700032D8705DDA3AD85879D93AD878A88A9AB8
:10058000F02850789EF38818F19F1D98A8D908D8B4
:10059000C89F129EF315A8DA1210D8F1AFC897873A
:1005A00034B5B994A421F3D922D8F22DF3D92AD89D
:1005B000F235F3D932D881A4606061D961D86C6812
:1005C00069D969D8747071D971D8B1A384193D5DA6
:1005D000A3831A3E5E931030811011B8B0AF8F9490
:1005E000F2DA3ED8B49AA88729DAF8D8879A35DAA9
:1005F000F8D8879A3DDAF8D8B1B9A49885022E5672
:10060000A581000C14A397B08AF12DD928D84DD913
:1006100048D86DD968D8B1840DDA0ED8A32983DA09
:100620002C0ED8A3844983DA2C4C0ED8B8B0A88AF3
:100630009AF520AADADFD8A840AAD0DADED8A860D6
:10064000AADAD0DFD8F19786A8319B069907AB9735
:1006500028889BF00C201440B8B0B4A88C9CF004FF
:100660002851791D301438B282ABD0982C50507874
:10067000789BF11AB0F08A9CA82951798B2951797D
:100680008A2470598B2058718A4469388B394068A4
:100690008A6448318B304960A588200971584468C4
:1006A000113964493019F1AC002C547CF08CA80449
:1006B000285078F1889726A85998AC8C022646666F
:1006C000F0899CA8295179247059446938644831CB
:1006D000A98809205970AB11384069A819314860C0
:1006E0008CA83C415C207C00F187981986A86E7626
:1006F0007EA999882D557D9EB9A38A228A6E8A5635
:100700008A5E9FB183062646660E2E4E6E9DB8AD5C
:10071000002C547CF2B18CB499B9A32D557D8191F4
:10072000AC38AD3AB58391AC2DD928D84DD948D83D
:100730006DD968D88C9DAE29D904AED851D904AEF4
:10074000D879D904D881F39DAD008DAE1981ADD98A
:1007500001D8F2AEDA26D88E912983A7D9ADADADF6
:10076000ADF32AD8D8F1B0AC89913E5E76F3AC2EC9
:100770002EF1B18C5A9CAC2C2828289CAC3018A89F
:10078000988128343C9724A728343C9C24F2B089D3
:10079000AC912C4C6C8A9B2DD9D8D851D9D8D8790A
:1007A000D9D8D8F19E88A331DAD8D8912DD928D8B4
:1007B0004DD948D86DD968D8B18393353D8025DAB5
:1007C000D8D88569DAD8D8B49381A328343CF3AB60
:1007D0008BF8A391B609B4D9ABDEFAB0879CB9A364
:1007E000DDF1202830389AF12830389DF1A3A3A3F9
:1007F000A3F2A3B49080F2A3A3A3A3A3A3A3A3A350
:10080000A3B2A3A3A3A3A3A3B087B599F1283038BB
:1008100098F1A3A3A3A397A3A3A3A3F39BA330DC63
:10082000B9A7F1262626FED8FF2900444D502049BD
:100830006E697469616C697A6174696F6E20666152
:10084000696C65642028636F64652000444D502006
:100850007265616479212057616974696E672066E9
:100860006F7220666972737420696E746572727536
:1008700070742E2E2E00292E2E2E00456E61626C75
:10088000696E6720696E7465727275707420646534
:1008900074656374696F6E202841726475696E6F48
:1008A0002065787465726E616C20696E7465727211
:1008B0007570742000456E61626C696E6720444DEE
:1008C000502E2E2E004D50553630353020636F6E31
:1008D0006E656374696F6E206661696C6564004D56
:1008E00050553630353020636F6E6E656374696FB6
:1008F0006E207375636365737366756C00496E690A
:100900007469616C697A696E6720444D502E2E2E91
:100910000054657374696E67206465766963652049
:10092000636F6E6E656374696F6E732E2E2E004951
:100930006E697469616C697A696E67204932432017
:10094000646576696365732E2E2E00000000002515
:100950000028002B0004040404040404040202021E
:1009600002020203030303030301020408102040F0
:100970008001020408102001020408102000000079
:10098000080002010000030407000000000000004E
:100990000000F81511241FBECFEFD8E0DEBFCDBF99
:1009A00012E0A0E0B1E0E8E0FBE402C005900D92A7
:1009B000A231B107D9F726E0A2E1B2E001C01D9251
:1009C000A030B207E1F714E0CAECD4E004C02197EC
:1009D000FE010E944A24C93CD107C9F70E94BA16F9
:1009E0000C9482250C94000090E0FC01E358F64F33
:1009F0002491FC01E759F64F3491FC01EB5AF64F74
:100A0000E491EE23C9F0222339F0233001F1A8F458
:100A1000213019F1223029F1F0E0EE0FFF1FE55BE4
:100A2000F64FA591B4918FB7F894EC91611126C05F
:100A300030953E233C938FBF08952730A9F028308E
:100A4000C9F0243049F7809180008F7D03C08091E8
:100A500080008F7780938000DFCF84B58F7784BD4F
:100A6000DBCF84B58F7DFBCF8091B0008F778093F3
:100A7000B000D2CF8091B0008F7DF9CF3E2BDACF7E
:100A80003FB7F8948091C8039091C903A091CA031D
:100A9000B091CB0326B5A89B05C02F3F19F0019656
:100AA000A11DB11D3FBFBA2FA92F982F8827BC01C8
:100AB000CD01620F711D811D911D42E0660F771FF0
:100AC000881F991F4A95D1F708958F929F92AF92F0
:100AD000BF92CF92DF92EF92FF924B015C010E9496
:100AE00040056B017C010E9440056C197D098E094F
:100AF0009F09683E734081059105A8F321E0821AA1
:100B00009108A108B10888EEC80E83E0D81EE11C48
:100B1000F11C81149104A104B10429F7FF90EF9016
:100B2000DF90CF90BF90AF909F908F9008952FB798
:100B3000F8946091C4037091C5038091C6039091AD
:100B4000C7032FBF089581E080931202089508958E
:100B500008950895AF92BF92CF92DF92EF92FF92E5
:100B60000F931F93CF93DF936C017B018B01040FD5
:100B7000151FEB015E01AE18BF08C017D10759F071
:100B80006991D601ED91FC910190F081E02DC601B3
:100B90000995892B79F7C501DF91CF911F910F91AD
:100BA000FF90EF90DF90CF90BF90AF900895FC0141
:100BB000538D448D252F30E0842F90E0821B930BC2
:100BC000541710F0CF96089501970895FC01918D68
:100BD000828D981761F0A28DAE0FBF2FB11D5D966B
:100BE0008C91928D9F5F9F73928F90E008958FEF0D
:100BF0009FEF0895FC01918D828D981731F0828DC1
:100C0000E80FF11D858D90E008958FEF9FEF089517
:100C1000FC01918D228D892F90E0805C9F4F821B7B
:100C200091098F73992708958CE394E00E94080638
:100C300021E0892B09F420E0822F089580E090E0E4
:100C4000892B29F00E94140681110C94000008954C
:100C5000FC01A48DA80FB92FB11DA35ABF4F2C9131
:100C6000848D90E001968F739927848FA689B78928
:100C70002C93A089B1898C91837080648C93938D1F
:100C8000848D981306C00288F389E02D80818F7DC2
:100C900080830895EF92FF920F931F93CF93DF937A
:100CA000EC0181E0888F9B8D8C8D98131AC0E889A8
:100CB000F989808185FF15C09FB7F894EE89FF8977
:100CC0006083E889F98980818370806480839FBF15
:100CD00081E090E0DF91CF911F910F91FF90EF9015
:100CE0000895F62E0B8D10E00F5F1F4F0F73112725
:100CF000E02E8C8D8E110CC00FB607FCFACFE88960
:100D0000F989808185FFF5CFCE010E942806F1CFB9
:100D1000EB8DEC0FFD2FF11DE35AFF4FF0829FB7D3
:100D2000F8940B8FEA89FB8980818062CFCF0F9383
:100D30001F93CF93DF938C01D0E0C0E0F801EC0F5C
:100D4000FD1F6491662341F08CE394E00E944A0603
:100D5000892B11F02196F2CFCE01DF91CF911F9117
:100D60000F910895CF93DF93EC01888D8823B9F01C
:100D7000AA89BB89E889F9898C9185FD03C08081A6
:100D800086FD0DC00FB607FCF7CF8C9185FFF2CF23
:100D9000808185FFEDCFCE010E942806E9CFDF914B
:100DA000CF91089520913402260F3327331F21322B
:100DB0003105ECF420913604FC0190E080E0243011
:100DC00069F082E00895A09134022191AC014C5E5B
:100DD0005D4FA40FB52FB11D2C930196861798F384
:100DE00080913402680F6093340280E0089581E0BE
:100DF00008951092360481E0809315041092100437
:100E000061E082E10E94F40461E083E10E94F40465
:100E1000E9EBF0E080818E7F808380818D7F80830D
:100E200088E48093B80085E48093BC000895CF9354
:100E3000DF9391E0909313028823B9F0C091B8003A
:100E4000D091BA008091BC008A7B8093BC0060E0A6
:100E500082E10E94F40460E083E10E94F4040E94B5
:100E6000F906D093BA00C093B800DF91CF910895EE
:100E7000CF92DF92EF92FF920F931F93CF93DF9366
:100E8000D82FC62F613208F098C00E9440056B0130
:100E90007C018091360481116BC081E0809336041F
:100EA000809315049FEF90931404109213049C0FE9
:100EB000909312048093110480911104DD0FD82BBC
:100EC000D093110480911004813009F078C0109201
:100ED00010040E9440056B017C01809111048093F5
:100EE000BB008091380490913904A0913A04B091EC
:100EF0003B04892B8A2B8B2BA1F00E94400500918B
:100F000038041091390420913A0430913B046C1953
:100F10007D098E099F09061717072807390708F466
:100F200048C08091BC0083FDD8CF85EC8093BC0085
:100F30000E9440056B017C0180913604813009F4E8
:100F400040C0809113048C1710F4C0911304E0EF9B
:100F5000F3E0A6E1B4E080E08C1355C08C2FDF9164
:100F6000CF911F910F91FF90EF90DF90CF90089558
:100F70008091380490913904A0913A04B0913B04D7
:100F8000892B8A2B8B2B09F484CF0E94400500917A
:100F900038041091390420913A0430913B046C19C3
:100FA0007D098E099F09061717072807390708F0DA
:100FB00070CF809137040E941707C0E0CFCF85EE35
:100FC000B5CF8091380490913904A0913A04B09142
:100FD0003B04892B8A2B8B2B09F4AECF0E94400552
:100FE000009138041091390420913A0430913B0467
:100FF0006C197D098E099F090617170728073907FD
:1010000008F09ACFD6CF91919D938F5FA5CF8F9205
:101010009F92AF92BF92CF92DF92EF92FF920F9387
:101020001F93CF93DF93D091EF03D13208F0D7C055
:10103000182FC091EE030E9440056B017C01809146
:10104000360481116BC082E080933604109315043E
:101050008FEF8093140410921304D0931204AEEC1B
:10106000B3E0E0EFF3E080E0D81391C010921104F8
:1010700080911104CC0FC82BC093110480911004EF
:10108000813009F088C0109210040E9440056B0165
:101090007C01809111048093BB0080913804909171
:1010A0003904A0913A04B0913B04892B8A2B8B2BF5
:1010B000A1F00E944005009138041091390420915C
:1010C0003A0430913B046C197D098E099F0906177B
:1010D00017072807390708F442C08091BC0083FD38
:1010E000D8CF85EC8093BC000E9440056B017C0149
:1010F00080913604823009F450C0809114048F3FEF
:1011000009F46FC080911404803209F46CC080919E
:101110001404803309F469C084E026C08091380447
:1011200090913904A0913A04B0913B04892B8A2B09
:101130008B2B09F484CF0E94400580903804909056
:101140003904A0903A04B0903B046C197D098E09D3
:101150009F0986169706A806B90608F070CF8091F9
:1011600037040E94170785E01092CD031092EF0319
:101170001092CC03DF91CF911F910F91FF90EF90D0
:10118000DF90CF90BF90AF909F908F9008959D91EA
:1011900091938F5F69CF85EEA5CF809138049091B0
:1011A0003904A0913A04B0913B04892B8A2B8B2BF4
:1011B00009F49ECF0E944005009138041091390433
:1011C00020913A0430913B046C197D098E099F09E6
:1011D000061717072807390708F08ACFC0CF81E024
:1011E000C3CF80E0C1CF82E0BFCF83E0BDCF0F93FC
:1011F0001F93CF93DF938A01E901209711F4C9ED82
:10120000D4E091E09093CC038093EE031092CD0351
:101210001092EF03E881F9810190F081E02DCE0179
:101220000995D80111966C91E881F9810190F081BE
:10123000E02DCE010995E881F9810190F081E02D42
:10124000D8016C91CE01099581E00E94070891E0D8
:10125000811190E0892FDF91CF911F910F91089517
:101260000895E0915C0280915B02E81730F4F0E0B1
:10127000EA5EFB4F808190E008958FEF9FEF089525
:1012800090915C0280915B022FEF3FEF981748F43A
:10129000E92FF0E0EA5EFB4F208130E09F5F909302
:1012A0005C02C901089580915B0290915C02891BE8
:1012B000990B0895CF92DF92EF92FF920F931F93B5
:1012C000CF93DF937C01CB018A012091CC032223B1
:1012D00089F0EB016B01C40ED51ECC15DD0569F05C
:1012E0006991D701ED91FC910190F081E02DC7014A
:1012F0000995F3CF642F0E94D206C801DF91CF91E8
:101300001F910F91FF90EF90DF90CF900895CF93B2
:10131000DF931F92CDB7DEB769832091CC032223E0
:10132000F9F02091EF03203258F021E030E0FC0189
:101330003383228390E080E00F90DF91CF91089576
:101340008091CD03E82FF0E0E253FC4F9981908328
:101350008F5F8093CD038093EF0381E090E0ECCF2B
:1013600061E0CE0101960E94D206F7CF90E080E0C6
:101370000895DF92EF92FF920F931F93CF93DF9325
:10138000E42ED22EF32EE801209711F4C9EDD4E01B
:1013900091E09093CC038093EE031092CD031092D2
:1013A000EF03E881F9810190F081E02DCE010995EC
:1013B0000D2D1F2DE00EF12EF11C0E151F0559F0FD
:1013C000F80161918F01E881F9810190F081E02DB0
:1013D000CE010995F2CF81E00E94070891E08111CA
:1013E00090E0892FDF91CF911F910F91FF90EF90A7
:1013F000DF9008950F931F93CF93DF931F92CDB784
:10140000DEB7498389019E012F5F3F4F41E00E9473
:10141000B9090F90DF91CF911F910F910895E7EDDA
:10142000F5E021813281482F6EE680810C94FA0923
:10143000FC0101900020E9F73197AF01481B590BDF
:10144000BC018CE394E00C94AA058F929F92AF921A
:10145000BF920F931F93CF93DF93CDB7DEB7A197C2
:101460000FB6F894DEBF0FBECDBF19A2423008F40C
:101470004AE08E010F5D1F4F842E912CB12CA12CC0
:10148000A50194010E94E520E62FB901CA01EA30C6
:10149000F4F4E05DD801EE938D01232B242B252B52
:1014A00079F790E080E0109719F0CD010E94180ABA
:1014B000A1960FB6F894DEBF0FBECDBFDF91CF91DE
:1014C0001F910F91BF90AF909F908F900895E95C0E
:1014D000E1CF0C94180ACF93DF930E949706EC019A
:1014E0008AEF91E00E94180A8C0F9D1FDF91CF9127
:1014F00008954F925F926F927F928F929F92AF92D8
:10150000BF92CF92DF92EF92FF920F931F93CF93F0
:101510006B017C01742EAC019B010E943024882356
:1015200099F08DEF91E0CF911F910F91FF90EF9087
:10153000DF90CF90BF90AF909F908F907F906F90F3
:101540005F904F900C94180A46015701E894B7F841
:101550002FEF3FEF4FE75FE7C501B4010E94302452
:1015600081110DC02FEF3FEF4FE75FE7C501B401D9
:101570000E94E62118161CF481E092E0D4CF2FEFF0
:101580003FEF4FE75FE4C701B6010E946C231816D6
:101590001CF485E092E0C7CF2FEF3FEF4FE75FEC01
:1015A000C701B6010E94E62187FDF3CF20E030E0BD
:1015B000A901C701B6010E94E62110E000E087FF03
:1015C0000AC06DE28CE394E00E944A068C01F7FAAF
:1015D000F094F7F8F094C0E060E070E080E09FE302
:1015E0007C1641F020E030E040E251E40E94EB2123
:1015F000CF5FF6CFA70196010E9408212B013C0185
:101600000E9464224B015C014AE00E94250A7C0191
:10161000E00EF11ECC23C1F1C501B4010E9493225A
:101620009B01AC01C301B2010E9407214B015C0187
:101630006EE28CE394E00E944A06E80EF91EC15067
:1016400018F120E030E040E251E4C501B4010E940D
:1016500079232B013C010E9464224B01B12CA12C67
:101660004AE0C501B4010E94250AE80EF91EC50131
:10167000B4010E9493229B01AC01C301B2010E94FC
:1016800007214B015C01DBCFC701CF911F910F9167
:10169000FF90EF90DF90CF90BF90AF909F908F9092
:1016A0007F906F905F904F9008950C94790ACF923D
:1016B000DF92EF92FF920F931F93CF93DF93FC0182
:1016C0007183608353834283643F81E0780709F428
:1016D000E8C0683EA3E07A0709F4E3C081E08483B0
:1016E000108611861286138614861586168617862E
:1016F000643FB1E07B0709F0DDC089E798E5A8EC1D
:10170000BEE3808B918BA28BB38B00E010E020E8CE
:101710003FE3048F158F268F378F07E01FE528E4FE
:101720003FE3048B158B268B378B0BE11FE22DEBF0
:101730003EE300A311A322A333A3808F918FA28F36
:10174000B38F8CEC9FE7A8E4BEE384A395A3A6A384
:10175000B7A310A611A612A613A614A615A616A620
:1017600017A6643FA1E07A0709F0D2C000E31CE4A9
:1017700026E53FE300AB11AB22AB33AB80E090E05A
:10178000A0E8BFE384AF95AFA6AFB7AF80E39CE41A
:10179000A6EDBFEB84AB95ABA6ABB7AB98E4C92E77
:1017A00091EED92E92EDE92E9FEBF92EDF01A05C90
:1017B000BF4FCD92DD92ED92FC92139700AF11AF27
:1017C00022AF33AF0FE21EE623E33FE314960D93FF
:1017D0001D932D933C931397EF01C857DF4F188249
:1017E00019821A821B82DF01A85BBF4F1D921D92D6
:1017F0001D921C92139714961D921D921D921C927D
:10180000179718961D921D921D921C921B971C965D
:101810001D921D921D921C921F974233510509F093
:10182000DCC0643F81E0780709F0A8C026EA31E017
:10183000BF01685A7F4F86E791E0AF0140595F4F83
:10184000D901CD90DD90ED90FD909D01DB01CD9211
:10185000DD92ED92FD92BD01DC01CD90DD90ED9029
:10186000FD90CD01DB015496CD92DD92ED92FC927C
:1018700057974617570721F786E39DECABEABFE37E
:1018800088839983AA83BB8381E08583868387834A
:10189000DF91CF911F910F91FF90EF90DF90CF904C
:1018A00008954233510521F04C33510509F016CF0C
:1018B000148216CF683E83E0780709F04ACF84E1AE
:1018C0009FE3A6E0BEE3808B918BA28BB38B00E0FD
:1018D00010E020E83FE3048F158F268F378F04E157
:1018E0001FE326E83EE3048B158B268B378B02ED36
:1018F0001FE62FE33FEB00A311A322A333A3808FA6
:10190000918FA28FB38F8CEC9DE5ABE8BEE31DCF2A
:10191000683EB3E07B0709F05FCF01E71DE32AE6ED
:101920003FE300AB11AB22AB33AB80E090E0A0E82B
:10193000BFE384AF95AFA6AFB7AF8AE29AE3AAEE52
:10194000BFEB84AB95ABA6ABB7AB8CE3C82E8EE4F4
:10195000D82E89EEE82E8FEBF82EDF01A05CBF4F6A
:10196000CD92DD92ED92FC92139700AF11AF22AFB2
:1019700033AF0DEB12E526E53FE328CF683E734019
:1019800009F082CF2EEB31E0BF01685A7F4F8EE81D
:1019900091E0AF0140595F4FD901CD90DD90ED90BE
:1019A000FD909D01DB01CD92DD92ED92FD92BD0196
:1019B000DC01CD90DD90ED90FD90CD01DB015496E2
:1019C000CD92DD92ED92FC9257976417750721F73F
:1019D00085EA9EE4A8EBBFE353CF4C33510509F0F1
:1019E00053CF643FB1E07B0759F526E431E0BF01F6
:1019F000685A7F4F86E191E0AF0140595F4FD901AE
:101A0000CD90DD90ED90FD909D01DB01CD92DD92BA
:101A1000ED92FD92BD01DC01CD90DD90ED90FD9049
:101A2000CD01DB015496CD92DD92ED92FC92579759
:101A30004617570721F78DE697EEABEABFE320CFB5
:101A4000683E734009F020CF2EE531E0BF01685AAF
:101A50007F4F8EE291E0AF0140595F4FD901CD90A9
:101A6000DD90ED90FD909D01DB01CD92DD92ED9238
:101A7000FD92BD01DC01CD90DD90ED90FD90CD019A
:101A8000DB015496CD92DD92ED92FC92579764174C
:101A9000750721F789E396EDA5EBBFE3F1CE2F9211
:101AA0003F924F925F926F927F928F929F92AF92EE
:101AB000BF92CF92DF92EF92FF920F931F93CF933B
:101AC000DF93CDB7DEB72B970FB6F894DEBF0FBE0E
:101AD000CDBFA82E6B83B42E3D832C836801FB867B
:101AE000EA860E9497052B013C01EA84FB84EF28DB
:101AF00021F429ED34E03B872A878B2C912C880C2C
:101B0000991C3B2D330F39838A82F12C10E0EE248F
:101B1000E394C601B0E0A0E08E839F83A887B987D5
:101B2000F81419040CF068C0E092CC03A092EE0304
:101B30001092CD031092EF03AA85BB85ED91FC9125
:101B400011970190F081E02D6B81CD01099581E025
:101B50000E94070869818A2D0E94380710925C0252
:101B600080935B0201E0AA85BB85ED91FC91119702
:101B70000084F185E02DCD010995892B89F11B1594
:101B800078F5C114D104E9F4212E312C220C331C38
:101B9000EC81FD812E0E3F1EAA85BB85ED91FC9147
:101BA0000284F385E02D01111EC08A859B8509956D
:101BB000F10120813181822B932B918380831F5FE0
:101BC00019C00E94970564197509860997092E8125
:101BD0003F81488559856217730784079507A0F2EE
:101BE0003A81F30E9DCF8A859B850995D1011C9280
:101BF00011968C930E25B7CFC114D10481F00E94A9
:101C000097056419750986099709F12CE12C6C1563
:101C10007D058E059F0518F01B1508F41FEF812F19
:101C20002B960FB6F894DEBF0FBECDBFDF91CF91DC
:101C30001F910F91FF90EF90DF90CF90BF90AF90EA
:101C40009F908F907F906F905F904F903F902F90DC
:101C500008952F923F924F925F926F927F928F9250
:101C60009F92AF92BF92CF92DF92EF92FF920F932B
:101C70001F93CF93DF9300D000D000D0CDB7DEB755
:101C800089836A83D42E3C832B83FE82ED820E945B
:101C900097054B015C01ED80FE80EF2821F489ED72
:101CA00094E09E838D83F12CE12CC12C2D2C312CC2
:101CB0002801712C612CE214F3040CF05DC091E05A
:101CC0009093CC03A981A093EE031092CD031092C0
:101CD000EF03AD81BE81ED91FC9111970190F081F0
:101CE000E02D6A81CD01099581E00E940708B101CC
:101CF0006E197F096132710514F060E270E06132A3
:101D000008F060E289810E94380710925C0280939B
:101D10005B02AD81BE81ED91FC9111970084F1854C
:101D2000E02DCD010995892BF9F00115110589F4F4
:101D3000AD81BE81ED91FC9111970284F385E02D78
:101D4000CD010995EB81FC81EC0DF11D8083C394DD
:101D5000E0CF0E949705681979098A099B096415E3
:101D600075058605970520F38D2DB0E2BD1508F4A5
:101D700080E2E80EF11C9FCF0115110589F00E9449
:101D80009705681979098A099B0930E020E06017F6
:101D900071078207930720F0CD1410F4CC24CA9465
:101DA0008C2D26960FB6F894DEBF0FBECDBFDF9107
:101DB000CF911F910F91FF90EF90DF90CF90BF9048
:101DC000AF909F908F907F906F905F904F903F90DB
:101DD0002F900895EF92FF920F931F93CF93DF936D
:101DE000EC01E980FA809C012D5F3F4F08EE13E083
:101DF00041E06AE388810E94290E8B81DF91CF91B7
:101E00001F910F91FF90EF900895EF92FF920F9323
:101E10001F93CF93DF931F92CDB7DEB7E090D80525
:101E2000F090D90508EE13E09E012F5F3F4F41E08F
:101E300065E78091D7050E94290E882339F08981B2
:101E40008E7790E0959587958093DA058091DA05F5
:101E50000F90DF91CF911F910F91FF90EF90089518
:101E6000EF92FF920F931F93CF93DF93C7EDD5E0CF
:101E7000E980FA8008EE13E02AED35E042E062E7FF
:101E800088810E94290E8B819C8198278927982719
:101E9000DF91CF911F910F91FF90EF9008957F9266
:101EA0008F929F92AF92BF92CF92DF92EF92FF926A
:101EB0000F931F93CF93DF931F92CDB7DEB7A82E5A
:101EC000962E742E822EB02E08EE13E09E012F5F08
:101ED0003F4F41E00E94290E882399F1872D8819F0
:101EE000990BAC014F5F5F4F81E090E002C0880F1B
:101EF000991F8A94E2F70197042E01C0880F0A9473
:101F0000EAF72B2D01C0220F4A95EAF7482F40959A
:101F1000B9804B218223482B49839701692D8A2D53
:101F20000E94FA090F90DF91CF911F910F91FF90BE
:101F3000EF90DF90CF90BF90AF909F908F907F9069
:101F4000089580E0EFCF8F929F92AF92BF92CF9291
:101F5000DF92EF92FF920F931F93CF93DF931F9225
:101F6000CDB7DEB7B82EA62E842E922E680178014A
:101F700008EE13E09E012F5F3F4F41E00E94290EC3
:101F800081E090E001C0880F8A94EAF749819920A6
:101F9000A9F0482B498396016A2D8B2D0E94FA09DE
:101FA0000F90DF91CF911F910F91FF90EF90DF90F5
:101FB000CF90BF90AF909F908F90089580954823C9
:101FC000E9CF0F931F93FC010181128121E042E0D0
:101FD0006AE680810E94A30F1F910F9108952F92AE
:101FE0003F924F925F926F927F928F929F92AF92A9
:101FF000BF92CF92DF92EF92FF920F931F93CF93F6
:10200000DF93CDB7DEB7E7970FB6F894DEBF0FBE0C
:10201000CDBF8F8F48A759A76AA77BA70CA71DA77D
:102020002EA73FA78B3309F042C20E94050F8833C9
:1020300008F4AFC297E79F8BA3E0AA8FE090D80582
:10204000F090D90508EE13E09E012F5F3F4F41E06D
:102050006CE18091D7050E94290E882351F0898177
:10206000887190E023E0959587952A95E1F7809314
:10207000DA058091DA0520E030E4690102C0D594E8
:10208000C7948A95E2F76EE38CE394E00E944A06D7
:10209000CE010D969E8B8D8BDE011196B98FA88F88
:1020A0005C019F88E090D805F090D90508EE13E018
:1020B0009E012D5E3F4F41E0692D8091D7050E9422
:1020C0004F0DEB88FC88B7010F2C000C880B990B87
:1020D0000E949522FF89F33109F4F1C121E0E22247
:1020E000FF24D501ED92FC9220E030E040E051E485
:1020F0000E947923E88DF98D6083718382839383B5
:10210000BA8D9B0EE2E0AE0EB11C288D398D2C5F8E
:102110003F4F398F288F8D899E892817390711F6EF
:102120009F8D9B3309F0D9C18DEC9CECACE4BDE3F1
:1021300088AB99ABAAABBBABA6E0B0E0BFA3AEA3A4
:10214000C601B0E0A0E08CAB9DABAEABBFAB19A2BB
:1021500018A2312C212CDE011196BE8FAD8FFE010D
:102160003D96FBA3EAA3FF89FCA32F8D2DA3812C11
:10217000912C54011C8E1B8EE090D805F090D9054F
:1021800008EE13E09E012D5E3F4F41E06DA180916E
:10219000D7050E944F0D6B897C89072E000C880B98
:1021A000990B0E9495226B017C013F8D3B3391F48A
:1021B0008B8D9C8D029771F46CA97DA98EA99FA926
:1021C0000E9493229B01AC01C701B6010E94072126
:1021D0006B017C012601370177FA709477F87094CF
:1021E000C501B4010E9493224B015C0120E030E064
:1021F000A901C701B6010E946C23181614F07301DF
:102200006201A7019601C501B4010E9408210E9444
:1022100064224B015C012FE632E143E85AE3C3013B
:10222000B2010E9479232CA53DA54EA55FA50E9471
:102230007923AD8DBE8D2D913D914D915C910E9484
:1022400008216B017C01ED8DFE8DC082D182E2827E
:10225000F38228A539A54AA55BA5C301B2010E9456
:102260007923A70196010E940821FF89F33109F41F
:102270003EC120E030E040E05EE30E9479236B0144
:102280007C0120E030E0A9010E946C2320E030E0D6
:1022900040E05FE387FD26C1C701B6010E94082127
:1022A0000E945D226E7FAAA1BBA18D919C91682B9B
:1022B000792B7C8B6B8B2091D8053091D905AE01A1
:1022C0004D5E5F4F6CA18091D7050E94F708EB8DA2
:1022D000FC8D3196FC8FEB8FFDA1FE5FFDA32CA141
:1022E0003A8D230F2CA38AA19BA102969BA38AA3BC
:1022F000AD8DBE8D1496BE8FAD8FEB8DFC8D33975B
:1023000009F03ACFF3E62F16310471F429EE821664
:1023100023E09206A104B10438F06AE28CE394E071
:102320000E944A06312C212CC501B4010E9493223F
:1023300028A939A94AA95BA90E94792320E030E0A5
:1023400040EA50E40E94E62187FF05C088A199A1D8
:10235000019699A388A394E689169104A104B10477
:1023600008F0E4C0ABE02A1631040CF4DFC0E8A1A9
:10237000F9A13A970CF4DAC06EE28CE394E00E9483
:102380004A0620E030E040E45FE368A579A58AA52D
:102390009BA50E94792368A779A78AA79BA720E01D
:1023A00030E040E45FE36CA57DA58EA59FA50E946B
:1023B00079236CA77DA78EA79FA79E01235F3F4F20
:1023C0006901FF88CE0101963C01F3016191719191
:1023D000819191913F01FF89F33109F4BBC020E065
:1023E00030E040E05EE30E9479234B015C0120E095
:1023F00030E0A9010E946C2320E030E040E05FE380
:1024000087FDA3C0C501B4010E9408210E945D227E
:102410006E7FD6018D919C91682B792B7C8B6B8B79
:102420002091D8053091D905AE014D5E5F4F6F2DDB
:102430008091D7050E94F708BA8DFB0EE2E0CE0E20
:10244000D11C288D398D2615370509F0BECF8EA1F8
:102450009FA101979FA38EA3892B09F078CE87EDCA
:1024600095E00E94E10F0091D8051091D90521E077
:1024700043E06AE68091D7050E94A30FE7960FB666
:10248000F894DEBF0FBECDBFDF91CF911F910F91AA
:10249000FF90EF90DF90CF90BF90AF909F908F9084
:1024A0007F906F905F904F903F902F90089523E121
:1024B0002F8B32E03A8FC12C80E2D82EE4CD20E081
:1024C00030E040E850E40E947923A88DB98D6D93E7
:1024D0007D938D939C93139713CE80E090E0A0E8BA
:1024E000BFE326CEC701B6010E940721D9CE20E066
:1024F00030E040E85EE30E9479236B017C0120E03C
:1025000030E0A9010E946C2320E030E040E05FE36E
:1025100087FD07C0C701B6010E9408210E945D2205
:10252000C8CEC701B6010E940721F8CF61E070E074
:1025300080E090E00E9465059FEF291A390AA4E621
:102540002A16310409F007CE17CFC501B4010E9445
:1025500007215CCF20E030E040E85EE30E94792371
:102560004B015C0120E030E0A9010E946C2320E0D7
:1025700030E040E05FE387FD07C0C501B4010E9481
:1025800008210E945D224ACFC501B4010E940721A3
:10259000F8CFB6E0BF8BE2E0EA8F50CD2F923F92AA
:1025A0004F925F926F927F928F929F92AF92BF9263
:1025B000CF92DF92EF92FF920F931F93CF93DF930F
:1025C00000D000D0CDB7DEB73C014B01242E522EF7
:1025D000302E2091D8053091D9056DE68091D70530
:1025E0000E94FA09852D0E940F0A80E190E00E9466
:1025F00050245C01002369F180E190E00E945024A6
:102600009C838B83D12CC12CC6014096482C4C183E
:102610008816990610F080E1482E80E091E0851937
:1026200091094816190619F014F0452C41943320ED
:1026300099F0AB81BC8190E080E093012C0D3D1DB1
:10264000841578F4F901E80FF91FE491ED930196F0
:10265000F7CF1C821B82D6CFC3018C0D9D1D9C839E
:102660008B830091D8051091D9052B813C81442D95
:102670006FE68091D7050E94B909842D90E09A8376
:102680008983A114B10409F446C02091D805309182
:10269000D905422D4F716DE68091D7050E94FA0948
:1026A000852D0E940F0AE090D805F090D90508EE1C
:1026B00013E09501442D6FE68091D7050E94290E05
:1026C00049815A81B5018B819C810E947525892B96
:1026D00011F1C5010E94EC24332029F08B819C81EB
:1026E0000E94EC24312C832D0F900F900F900F90AF
:1026F000DF91CF911F910F91FF90EF90DF90CF90DE
:10270000BF90AF909F908F907F906F905F904F9011
:102710003F902F90089589819A81C80ED91EC814C0
:10272000D904B8F4540C09F423942091D8053091BD
:10273000D905422D4F716DE68091D7050E94FA09A7
:10274000852D0E940F0A60CF8B819C810E94EC2412
:10275000CACFC5010E94EC243110F6CF3324339444
:10276000C2CF85ED8093BC008091380490913904EC
:10277000A0913A04B0913B040796A11DB11D23E03E
:10278000B695A795979587952A95D1F72091BC0086
:1027900024FD03C0109236040895409138045091EE
:1027A000390460913A0470913B04452B462B472B2A
:1027B00069F30097A105B10541F02AE22A95F1F7E6
:1027C00000C00197A109B109E1CF809137040C94B1
:1027D00017071F920F920FB60F9211242F933F935A
:1027E0008F939F93AF93BF938091C4039091C50340
:1027F000A091C603B091C7033091C30323E0230F18
:102800002D3758F50196A11DB11D2093C303809368
:10281000C4039093C503A093C603B093C7038091EC
:10282000C8039091C903A091CA03B091CB0301964C
:10283000A11DB11D8093C8039093C903A093CA033F
:10284000B093CB03BF91AF919F918F913F912F9107
:102850000F900FBE0F901F90189526E8230F029639
:10286000A11DB11DD2CF1F920F920FB60F9211244E
:102870002F933F934F935F936F937F938F939F9388
:10288000AF93BF93EF93FF93E0910201F0910301A7
:102890000995FF91EF91BF91AF919F918F917F919A
:1028A0006F915F914F913F912F910F900FBE0F90BD
:1028B0001F9018951F920F920FB60F9211242F930D
:1028C0003F934F935F936F937F938F939F93AF93B8
:1028D000BF93EF93FF93E0910001F09101010995FF
:1028E000FF91EF91BF91AF919F918F917F916F91E8
:1028F0005F914F913F912F910F900FBE0F901F90BE
:1029000018951F920F920FB60F9211242F933F9399
:102910004F935F936F937F938F939F93AF93BF93E7
:10292000EF93FF938CE394E00E942806FF91EF91D0
:10293000BF91AF919F918F917F916F915F914F91D7
:102940003F912F910F900FBE0F901F9018951F92DF
:102950000F920FB60F9211242F938F939F93EF93A3
:10296000FF93E0914C04F0914D048081E09152047A
:10297000F091530482FD1BC09081809155048F5FBC
:102980008F7320915604821741F0E0915504F0E0D6
:10299000E45CFB4F958F80935504FF91EF919F91DD
:1029A0008F912F910F900FBE0F901F9018958081DF
:1029B000F4CF1F920F920FB60F9211242F933F93D3
:1029C0004F935F936F937F938F939F93AF93BF9337
:1029D000EF93FF938091B900887F803609F44AC055
:1029E000F0F5883209F4A7C018F5803109F49BC0CE
:1029F000B8F4882309F4F9C0883009F494C0FF9131
:102A0000EF91BF91AF919F918F917F916F915F9166
:102A10004F913F912F910F900FBE0F901F901895DF
:102A2000883109F488C0803251F78093140414C0AF
:102A3000803409F49DC040F48033B9F38833F9F64B
:102A40008093140485ECB0C0803509F485C08835C6
:102A500009F496C0883499F60E94B113D0CF883912
:102A600009F48CC038F5883729F050F4883611F015
:102A7000803729F683E0809336041092560257C0BF
:102A8000883809F47BC0803919F0803809F0B7CF55
:102A900080915602803208F071C0E091560281E0C8
:102AA0008E0F809356028091BB00F0E0EA5CFD4FF0
:102AB00080833DC0803B39F0E0F4803A09F479C06E
:102AC000883A09F09CCF84E0809336041092350256
:102AD00010923402E0915902F0915A0209958091C6
:102AE000340281110FC081E08093340210921402ED
:102AF00009C0803C09F4A6CF883C09F4A3CF883BE9
:102B000009F07DCFE091350281E08E0F8093350290
:102B1000F0E0EC5EFD4F80818093BB009091350228
:102B20008091340229C0809111048093BB0085EC10
:102B30008093BC0064CF9091130480911204981785
:102B400058F5E091130481E08E0F80931304F0E0B8
:102B5000E051FC4F8081E9CFE091130481E08E0FBA
:102B6000809313048091BB00F0E0E051FC4F808320
:102B700090911304809112049817C8F285E8D8CF79
:102B8000E091130481E08E0F809313048091BB00C9
:102B9000F0E0E051FC4F80838091150481115CCFFF
:102BA00081E08093100484EA8093BC001092360484
:102BB00026CF85EC8093BC0010923604809156029B
:102BC000803230F4E0915602F0E0EA5CFD4F108272
:102BD0006091560270E0E0915702F091580286E34E
:102BE00092E00995109256020ACF1092140434CF45
:102BF000ECE3F4E01382128288EE93E0A0E0B0E010
:102C000084839583A683B7832AED31E031832083C3
:102C100025EC30E03587248724EC30E037872687A1
:102C200020EC30E0318B208B21EC30E0338B228B99
:102C300022EC30E0358B248B26EC30E0378B268B72
:102C4000118E128E138E148EE9EDF4E0138212822F
:102C500084839583A683B7838CEE91E091838083F0
:102C6000E7EDF5E088E680831282118288EF9AE230
:102C7000A0E0B0E0818B928BA38BB48BE7ECF5E006
:102C800080E090E0A0E8BFE380839183A283B383D8
:102C90001482158216821782108611861286138678
:102CA0001486158616861786E1ECF5E011821082EF
:102CB0001382128215821482EBEBF5E011821082EE
:102CC0001382128215821482E5EBF5E011821082E4
:102CD0001382128215821482E9EAF5E010821182D1
:102CE0001282138214821582168217821086118630
:102CF0001286138688E1E5EEF4E0DF01982F1D923D
:102D00009A95E9F7EDEFF4E0DF01982F1D929A957F
:102D1000E9F7E5E1F5E0DF01982F1D929A95E9F7D3
:102D2000EDE2F5E0DF01982F1D929A95E9F7E5E4D1
:102D3000F5E0DF01982F1D929A95E9F7EDE5F5E0B2
:102D4000DF011D928A95E9F78CE0EAE0F1E0A5E762
:102D5000B5E001900D928A95E1F78DEC9CECACEC1E
:102D6000BDE38093810590938205A0938305B09382
:102D700084050895CF93DF93CDB7DEB7C056D10950
:102D80000FB6F894DEBF0FBECDBF789484B58260D5
:102D900084BD84B5816084BD85B5826085BD85B5FF
:102DA000816085BD80916E00816080936E0010927D
:102DB00081008091810082608093810080918100F8
:102DC0008160809381008091800081608093800089
:102DD0008091B10084608093B1008091B0008160E7
:102DE0008093B00080917A00846080937A00809113
:102DF0007A00826080937A0080917A00816080936B
:102E00007A0080917A00806880937A001092C100E5
:102E100010925C0210925B021092CD031092EF03AD
:102E20000E94F90687EA95E090935A02809359022E
:102E300088EA95E090935802809357028CE0809343
:102E4000B800E0914C04F0914D0482E08083E09161
:102E50004804F09149041082E0914A04F0914B0437
:102E600080E1808310925404E0915004F091510469
:102E700086E08083E0914E04F0914F048081806170
:102E80008083E0914E04F0914F04808188608083BC
:102E9000E0914E04F0914F04808180688083E0913E
:102EA0004E04F0914F0480818F7D80838FE299E002
:102EB0000E946B0AE090D805F090D90501E023E06C
:102EC00042E06BE68091D7050E944F0FE090D80555
:102ED000F090D90500E022E044E06BE18091D70555
:102EE0000E944F0FE090D805F090D90522E044E011
:102EF0006CE18091D7050E944F0F0091D805109189
:102F0000D90520E046E06BE68091D7050E94A30F2B
:102F1000EBE6F9E02491E7E5F9E084918823C9F034
:102F200090E0880F991FFC01EA56FF4F459154919C
:102F3000FC01E55BF64FA591B4919FB7F894FA01B7
:102F400080812095822380838C91E22FE823EC936B
:102F50009FBF81E199E00E946B0A0E94050F8433B4
:102F600009F0C9C28FED98E00E946B0A8DEF98E0DE
:102F70000E946B0A0091D8051091D90521E047E025
:102F80006BE68091D7050E94A30F6EE170E080E0B0
:102F900090E00E9465050091D8051091D90520E0C8
:102FA00046E06BE68091D7050E94A30F2091D805DB
:102FB0003091D90540E76DE68091D7050E94FA0966
:102FC00086E00E940F0A2091D8053091D90540E093
:102FD0006DE68091D7050E94FA092091D8053091BD
:102FE000D9054FE765E28091D7050E94FA09009163
:102FF000D8051091D90520E045E06AE68091D70513
:103000000E94A30F2091D8053091D90548E665E2CA
:103010008091D7050E94FA090091D8051091D90531
:1030200021E041E06AE68091D7050E94A30F64E1A8
:1030300070E080E090E00E946505E090D805F09097
:10304000D90503E023E042E06BE68091D7050E94BA
:103050004F0F2091D8053091D90542E168E3809166
:10306000D7050E94FA092091D8053091D90544E08E
:1030700069E18091D7050E94FA09E090D805F090A7
:10308000D90501E023E045E06AE18091D7050E947F
:103090004F0FE090D805F090D90503E023E042E01F
:1030A0006AE18091D7050E944F0FE090D805F0901B
:1030B000D90522E044E06BE18091D7050E944F0FD3
:1030C00001E020E040E069E877E080EA90E00E94DB
:1030D000CE12882309F412C2198281E08A8300E0AB
:1030E00026E142E062E070E0CE0101960E94CE123D
:1030F0002091D8053091D90543E060E78091D7054C
:103100000E94FA092091D8053091D90540E061E785
:103110008091D7050E94FA090091D8051091D90530
:1031200020E040E060E08091D7050E94A30F20914D
:10313000D8053091D90542E06FE18091D7050E9412
:10314000FA092091D8053091D9054CE961E28091C6
:10315000D7050E94FA092091D8053091D90540E59C
:1031600060E28091D7050E94FA092091D80530913C
:10317000D90540E062E28091D7050E94FA090091EA
:10318000D8051091D90521E046E06AE68091D7057F
:103190000E94A30F0091D8051091D90521E043E0CA
:1031A0006AE68091D7050E94A30F0091D80510917F
:1031B000D90520E047E06AE68091D7050E94A30F79
:1031C0008AE290E09093FB058093FA0587ED95E005
:1031D0000E94E10F87ED95E00E94EA0E80E0809367
:1031E00075032091D8053091D9058091D7054CED14
:1031F00050E058A74FA3AE01495D5F4F63E10E94C5
:10320000F7082091D8053091D9058091D7054CE475
:1032100050E05EA34DA3AE014B5D5F4F65E10E94A0
:10322000F7082091D8053091D9058091D7054BEA50
:103230005FEF5CA34BA3AE014D5D5F4F67E10E9462
:10324000F7080E94050F6AE0883308F06DE72091C7
:10325000D8053091D9058091D7054CEF56E05AA397
:1032600049A3AE014F5D5F4F0E94F708F0907503D0
:10327000F11046C100E010E028EA31E44EEA57E4DC
:1032800061EA7EE38BE30E94EF0F0FEF1FEF2CEB61
:1032900032E44EEA57E461EA7EE383E40E94EF0FF2
:1032A0000E94050FE090D805F090D90508EE13E0D4
:1032B0002CEE35E043E066E08833D0F041E067E78C
:1032C0008091D7050E944F0DE090D805F090D90568
:1032D0002EEE35E041E06AE78091D7050E944F0D60
:1032E000E090D805F090D90520EF35E041E06DE79A
:1032F0008091D7050E944F0DE090D805F090D90538
:1033000008EE13E022EF35E043E063E18091D7055A
:103310000E944F0D6091EC057091ED05072E000C99
:10332000880B990B0E94952245E050E00E94550BB6
:1033300089E092E00E94690A6091EE057091EF05C4
:10334000072E000C880B990B0E94952245E050E057
:103350000E94550B89E092E00E94690A6091F00595
:103360007091F105072E000C880B990B0E94952295
:1033700045E050E00E94550B89E092E00E94690A06
:103380006091F2057091F305072E000C880B990BE4
:103390000E94952245E050E00E94550B89E092E0A2
:1033A0000E94690A6091F4057091F505072E000CE2
:1033B000880B990B0E94952245E050E00E94550B26
:1033C00089E092E00E94690A6091F6057091F70524
:1033D000072E000C880B990B0E94952245E050E0C7
:1033E0000E94550B8CE092E00E94690A85EB98E000
:1033F0000E946B0A0091D8051091D90521E047E0A1
:103400006AE68091D7050E94A30F8BE798E00E949F
:1034100097064AE060E070E0CB010E94250A86E74B
:1034200098E00E946B0A83EA95E0909301018093F3
:10343000000180916900836080936900E89A87EDBC
:1034400095E00E94EA0E8CE498E00E946B0A81E00D
:103450008093C2034CE350E068EE73E089EE92E0A3
:103460000E94570B4CE350E068EE73E08DE592E06C
:103470000E94570B8091C203882391F16090FA0556
:103480007090FB0569A60E9440051B012C015301A9
:10349000BB240E94300F9C01A816B9060CF068C02E
:1034A000893C9105ECF187ED95E00E94E10F0E94C7
:1034B000300F9C01892B09F05FC00E944005621902
:1034C000730984099509C090E805D090E905E0905A
:1034D000EA05F090EB05C616D706E806F90638F7B8
:1034E00080E090E0892B31F20E941406882311F2CB
:1034F0000E940000BFCF85EC98E036CD81E06FCE12
:103500008BE298E00E9497066F2D70E090E080E0DB
:103510004AE00E94250A89E298E00E946B0A9ACF4D
:103520000E94300F9C01A816B90614F56C01CA1848
:10353000DB084601F1E2CF16D1041CF080E2882EB0
:10354000912C882099F0E090D805F090D90508EEEC
:1035500013E09E012F5F3F4F482D64E78091D70510
:103560000E94290EC818D90821F7DACF1982FACF9C
:103570002115310509F4B4CFA216B306E9F00E9473
:1035800040056219730984099509C090E805D09037
:10359000E905E090EA05F090EB05C616D706E806C7
:1035A000F90608F076CF9CCF1092820316C06BED1F
:1035B0007FE089E490EC9BC499A59923A9F3E0905E
:1035C000D805F090D90508EE13E022E833E0462D47
:1035D00064E78091D7050E94290EA0908603B090E1
:1035E0008703BA24AB24BA24C0908A03D0908B03FB
:1035F000DC24CD24DC24E0908E03F0908F03FE24A5
:10360000EF24FE246091820370918303762767275D
:103610007627072E000C880B990B0E94952220E03C
:1036200030E040E858E30E94792369A77AA78BA786
:103630009CA76093C7057093C8058093C9059093B4
:10364000CA05B501BB0C880B990B0E94952220E09E
:1036500030E040E858E30E9479236DA77EA78FA74A
:1036600098AB6093CB057093CC058093CD05909378
:10367000CE05B601DD0C880B990B0E94952220E047
:1036800030E040E858E30E94792369AB7AAB8BAB1A
:103690009CAB6093CF057093D0058093D105909338
:1036A000D205B701FF0C880B990B0E94952220E0F0
:1036B00030E040E858E30E9479236DAB7EAB8FABDE
:1036C00098AF6093D3057093D4058093D5059093FC
:1036D000D605A0909E03B0909F03BA24AB24BA24D1
:1036E000B092C205A092C1056090A2037090A3039E
:1036F0007624672476247092C4056092C3054090B6
:10370000A6035090A7035424452454245092C60580
:103710004092C5059B01AC016DA57EA58FA598A91A
:103720000E9479236B017C0129A93AA94BA95CA9C4
:1037300069A57AA58BA59CA50E9479239B01AC0164
:10374000C701B6010E9407219B01AC010E9408211C
:103750002D966CAF7DAF8EAF9FAF2D976093A9056F
:103760007093AA058093AB059093AC052DA53EA55B
:103770004FA558A969A57AA58BA59CA50E94792378
:103780006B017C012DA93EA94FA958AD69A97AA961
:103790008BA99CA90E9479239B01AC01C701B601AA
:1037A0000E9408219B01AC010E94082125966CAF64
:1037B0007DAF8EAF9FAF25976093AD057093AE053B
:1037C0008093AF059093B00529A53AA54BA55CA5BC
:1037D000CA01B9010E9479236B017C012DA53EA588
:1037E0004FA558A9CA01B9010E9479239B01AC01D8
:1037F000C701B6010E9407216B017C0129A93AA9E2
:103800004BA95CA9CA01B9010E9479239B01AC01B3
:10381000C701B6010E9407216B017C012DA93EA9B9
:103820004FA958ADCA01B9010E9479239B01AC018F
:10383000C701B6010E94082121966CAF7DAF8EAF03
:103840009FAF21976093B1057093B2058093B30544
:103850009093B405B501BB0C880B990B0E9495227F
:103860006B017C0120E030E040E056E42D966CAD29
:103870007DAD8EAD9FAD2D970E9479239B01AC014C
:10388000C701B6010E9407210E945D224B0170937F
:10389000BC056093BB05B301770C880B990B0E94A4
:1038A00095226B017C0120E030E040E056E4259653
:1038B0006CAD7DAD8EAD9FAD25970E9479239B01A8
:1038C000AC01C701B6010E9407210E945D226B0175
:1038D0007093BE056093BD05B201550C880B990B22
:1038E0000E9495222B013C0120E030E040E056E4AC
:1038F00021966CAD7DAD8EAD9FAD21970E94792351
:103900009B01AC01C301B2010E9407210E945D220C
:103910007093C0056093BF05072E000C880B990BB0
:103920000E94952269AF7AAF8BAF9CAFB601DD0CD8
:10393000880B990B0E9495226B017C01B401990CB4
:10394000880B990B0E9495224B015C0129AD3AAD81
:103950004BAD5CAD69A57AA58BA59CA50E9479238A
:103960002B013C01A70196016DA57EA58FA598A905
:103970000E9479239B01AC01C301B2010E9408217E
:103980002B013C01A501940169A97AA98BA99CA9E5
:103990000E9479239B01AC01C301B2010E9407215F
:1039A0002B013C0120E030E0A9016DA97EA98FA97F
:1039B00098AD0E9479239B01AC01C301B2010E9422
:1039C000082161966CAF7DAF8EAF9FAF6197A70165
:1039D000960169A57AA58BA59CA50E9479232B0148
:1039E0003C0129AD3AAD4BAD5CAD6DA57EA58FA573
:1039F00098A90E9479239B01AC01C301B2010E94E6
:103A000007212B013C0120E030E0A90169A97AA936
:103A10008BA99CA90E9479239B01AC01C301B2012F
:103A20000E9408212B013C01A50194016DA97EA9EA
:103A30008FA998AD0E9479239B01AC01C301B2010B
:103A40000E94082165966CAF7DAF8EAF9FAF6597E2
:103A5000A501940169A57AA58BA59CA50E9479234F
:103A60002B013C0120E030E0A9016DA57EA58FA5CA
:103A700098A90E9479239B01AC01C301B2010E9465
:103A800008212B013C0129AD3AAD4BAD5CAD69A9D4
:103A90007AA98BA99CA90E9479239B01AC01C3013F
:103AA000B2010E9408212B013C01A70196016DA9DA
:103AB0007EA98FA998AD0E9479239B01AC01C30117
:103AC000B2010E94072169966CAF7DAF8EAF9FAFA8
:103AD000699720E030E0A90169A57AA58BA59CA58E
:103AE0000E9479232B013C01A50194016DA57EA5BF
:103AF0008FA598A90E9479239B01AC01C301B20153
:103B00000E9407214B015C01A701960169A97AA9CE
:103B10008BA99CA90E9479239B01AC01C501B4012A
:103B20000E9407216B017C0129AD3AAD4BAD5CAD24
:103B30006DA97EA98FA998AD0E9479239B01AC0144
:103B4000C701B6010E9407214B015C01CDA8DEA888
:103B5000EFA8F8ACF7FAF094F7F8F09489A99AA9CD
:103B6000ABA9BCA9B05889AF9AAFABAFBCAF8DA51C
:103B70009EA5AFA5B8A9B05829968CAF9DAFAEAFA2
:103B8000BFAF2997A5019401BC01CD010E94792303
:103B90002B013C0169962CAD3DAD4EAD5FAD6997F3
:103BA00069A57AA58BA59CA50E9479239B01AC01F0
:103BB000C301B2010E9408212B013C0165962CAD86
:103BC0003DAD4EAD5FAD6597C701B6010E9479234B
:103BD0009B01AC01C301B2010E9408212B013C01F1
:103BE00061962CAD3DAD4EAD5FAD619769AD7AADDF
:103BF0008BAD9CAD0E9479239B01AC01C301B20146
:103C00000E9407210E945D226D966CAF7DAF8EAF42
:103C10009FAF6D976B96AEADBFAD6B97B093B6058A
:103C2000A093B505A501940169AD7AAD8BAD9CADAE
:103C30000E9479232B013C0169962CAD3DAD4EAD20
:103C40005FAD6997C701B6010E9479239B01AC0162
:103C5000C301B2010E9407212B013C0165962CADE6
:103C60003DAD4EAD5FAD659769A57AA58BA59CA5C9
:103C70000E9479239B01AC01C301B2010E9408217B
:103C80002B013C0161962CAD3DAD4EAD5FAD619712
:103C900029966CAD7DAD8EAD9FAD29970E9479239D
:103CA0009B01AC01C301B2010E9408210E945D2268
:103CB000A1966CAF7DAF8EAF9FAFA1976F96EEAD23
:103CC000FFAD6F97F093B805E093B705A501940198
:103CD000C701B6010E9479236B017C0169962CAD66
:103CE0003DAD4EAD5FAD699769AD7AAD8BAD9CAD25
:103CF0000E9479239B01AC01C701B6010E940821F3
:103D00006B017C0165962CAD3DAD4EAD5FAD659709
:103D100029966CAD7DAD8EAD9FAD29970E9479231C
:103D20009B01AC01C701B6010E9407216B017C0118
:103D300061962CAD3DAD4EAD5FAD619769A57AA59D
:103D40008BA59CA50E9479239B01AC01C701B601FC
:103D50000E9408210E945D2269AF7AAF8BAF9CAFB1
:103D600029AD3AAD3093BA052093B90529A53AA5F6
:103D70004BA55CA5CA01B9010E9408216B017C0119
:103D80002DA53EA54FA558A9CA01B9010E94082139
:103D90004B015C0129A53AA54BA55CA5C701B6015D
:103DA0000E9479232B013C012DA53EA54FA558A9C2
:103DB000C501B4010E9479239B01AC01C301B2018A
:103DC0000E94082120E030E040E85FE30E940721E4
:103DD0002B013C0129A93AA94BA95CA9C501B40151
:103DE0000E9479234B015C012DA93EA94FA958AD32
:103DF000C701B6010E9479239B01AC01C501B40142
:103E00000E940721A30192010E94872169A77AA736
:103E10008BA79CA7609376037093770380937803B6
:103E20009093790325962CAD3DAD4EAD5FAD2597B2
:103E3000CA01B9010E9479236B017C0121962CAD46
:103E40003DAD4EAD5FAD2197CA01B9010E94792306
:103E50009B01AC01C701B6010E9408210E94EC231E
:103E60009B01AC012D966CAD7DAD8EAD9FAD2D97B8
:103E70000E9487216B017C01C0927A03D0927B0360
:103E8000E0927C03F0927D0321962CAD3DAD4EADCA
:103E90005FAD219725966CAD7DAD8EAD9FAD25971D
:103EA0000E94872160937E0370937F038093800339
:103EB0009093810320E030E0A90121966CAD7DADA7
:103EC0008EAD9FAD21970E94E62187FF1AC020E0AA
:103ED00030E0A901C701B6010E946C23A701960139
:103EE00018160CF064CB6BED7FE089E490E40E943F
:103EF000072160937A0370937B0380937C039093F4
:103F00007D03A9ADBAADBD01BB0F880B990B0E9413
:103F100095224B015C016F96EEADFFAD6F97BF012F
:103F2000FF0F880B990B0E9495222B013C016B9689
:103F30002EAD3FAD6B97B901330F880B990B0E94E3
:103F400095226093850570938605809387059093ED
:103F50008805409291055092920560929305709267
:103F6000940580929D0590929E05A0929F05B09227
:103F7000A005C0908105D0908205E0908305F09067
:103F80008405A70196010E9479232091890530912B
:103F90008A0540918B0550918C050E9408216DA7E0
:103FA0007EA78FA798AB6093890570938A0580934D
:103FB0008B0590938C05A7019601C301B2010E9465
:103FC0007923209195053091960540919705509160
:103FD00098050E9408212B013C01409295055092C2
:103FE00096056092970570929805A7019601C50104
:103FF000B4010E9479232091A1053091A20540913E
:10400000A3055091A4050E9408214B015C018092F8
:10401000A1059092A205A092A305B092A4052DA59A
:104020003EA54FA558A9C701B6010E9479239B015F
:10403000AC0160918D0570918E0580918F059091F6
:1040400090050E94082160938D0570938E058093E2
:104050008F0590939005A3019201C701B6010E94BC
:1040600079239B01AC016091990570919A0580912B
:104070009B0590919C050E9408216093990570937F
:104080009A0580939B0590939C05A5019401C70117
:10409000B6010E9479239B01AC016091A505709146
:1040A000A6058091A7059091A8050E94082160931C
:1040B000A5057093A6058093A7059093A80520E019
:1040C00030E044E353E469A57AA58BA59CA50E9442
:1040D00079232BED3FE049E450E40E94EB2142E0DC
:1040E00050E00E94550B8FE092E00E94690A20E0A8
:1040F00030E044E353E460917A0370917B03809154
:104100007C0390917D030E9479232BED3FE049E4ED
:1041100050E40E94EB2142E050E00E94550B8FE0FA
:1041200092E00E94690A20E030E044E353E46091A9
:104130007E0370917F0380918003909181030E94A0
:1041400079232BED3FE049E450E40E94EB2142E06B
:1041500050E00E94550B8FE092E00E94690A609146
:104160008D0570918E0580918F059091900542E0AC
:1041700050E00E94550B8FE092E00E94690A609126
:10418000990570919A0580919B0590919C0542E05C
:1041900050E00E94550B8FE092E00E94690A609106
:1041A000A5057091A6058091A7059091A80542E00C
:1041B0000E94790A8AEF91E00E94180A6AE070E092
:1041C00080E090E00E9465058BC9A1E21A2EAA1B2F
:1041D000BB1BFD010DC0AA1FBB1FEE1FFF1FA217B7
:1041E000B307E407F50720F0A21BB30BE40BF50BB4
:1041F000661F771F881F991F1A9469F7609570953D
:10420000809590959B01AC01BD01CF010895505858
:10421000BB27AA270E941F210C9432230E9424232B
:1042200038F00E942B2320F039F49F3F19F426F434
:104230000C94FA220EF4E095E7FB0C94F422E92F9B
:104240000E94432358F3BA17620773078407950740
:1042500020F079F4A6F50C9465230EF4E0950B2E6E
:10426000BA2FA02D0B01B90190010C01CA01A001C8
:104270001124FF27591B99F0593F50F4503E68F123
:104280001A16F040A22F232F342F4427585FF3CF64
:10429000469537952795A795F0405395C9F77EF435
:1042A0001F16BA0B620B730B840BBAF09150A1F07E
:1042B000FF0FBB1F661F771F881FC2F70EC0BA0F04
:1042C000621F731F841F48F4879577956795B7958C
:1042D000F7959E3F08F0B0CF9395880F08F0992787
:1042E000EE0F9795879508950E94242360F080E84B
:1042F00091E009F49EEF0E942B2328F040E851E062
:1043000071F45EEF0CC00C94FA220C946523E92F33
:10431000E0780E94432340F3092E052AB1F32617C3
:1043200037074807590738F00E2E07F8E02569F0DF
:10433000E025E0640AC0EF6307F8009407FADB01A8
:10434000B9019D01DC01CA01AD01EF930E94022277
:104350000E9432230E94B7215F91552339F02BED43
:104360003FE049E450FD49EC0C9408210895DF93A7
:10437000DD27B92FBF7740E85FE316161706480719
:104380005B0718F4D92F0E9471239F938F937F931B
:104390006F930E942C24E8E6F0E00E94FD220E9428
:1043A00032232F913F914F915F910E948C23DD2307
:1043B00051F09058A2EA2AED3FE049EC5FE3D07853
:1043C0005D270E941F21DF910C9432230E94D0228E
:1043D00008F481E008950E94FF210C9432230E948A
:1043E0002B2358F00E94242340F029F45F3F29F04A
:1043F0000C94F42251110C9466230C94FA220E941E
:10440000432368F39923B1F3552391F3951B550B7F
:10441000BB27AA2762177307840738F09F5F5F4F97
:10442000220F331F441FAA1FA9F335D00E2E3AF0D6
:10443000E0E832D091505040E695001CCAF72BD0EE
:10444000FE2F29D0660F771F881FBB1F261737073F
:104450004807AB07B0E809F0BB0B802DBF01FF2771
:1044600093585F4F3AF09E3F510578F00C94F42238
:104470000C9466235F3FE4F3983ED4F386957795DA
:104480006795B795F7959F5FC9F7880F911D96952A
:10449000879597F90895E1E0660F771F881FBB1F86
:1044A000621773078407BA0720F0621B730B840B33
:1044B000BA0BEE1F88F7E09508950E946422689475
:1044C000B1110C94662308950E944B2388F09F57E6
:1044D00098F0B92F9927B751B0F0E1F0660F771F28
:1044E000881F991F1AF0BA95C9F714C0B13091F01E
:1044F0000E946523B1E008950C946523672F782FFF
:104500008827B85F39F0B93FCCF3869577956795E2
:10451000B395D9F73EF490958095709561957F4F4E
:104520008F4F9F4F0895E89409C097FB3EF49095F4
:104530008095709561957F4F8F4F9F4F9923A9F07C
:10454000F92F96E9BB279395F6958795779567950B
:10455000B795F111F8CFFAF4BB0F11F460FF1BC04F
:104560006F5F7F4F8F4F9F4F16C0882311F096E9E2
:1045700011C0772321F09EE8872F762F05C0662390
:1045800071F096E8862F70E060E02AF09A95660F49
:10459000771F881FDAF7880F9695879597F9089502
:1045A000990F0008550FAA0BE0E8FEEF1616170644
:1045B000E807F907C0F012161306E407F50798F0AC
:1045C000621B730B840B950B39F40A2661F0232BC5
:1045D000242B252B21F408950A2609F4A140A69541
:1045E0008FEF811D811D089597F99F6780E870E026
:1045F00060E008959FEF80EC0895DF93CF931F93C1
:104600000F93FF92EF92DF927B018C01689406C0BA
:10461000DA2EEF010E948C23FE01E894A5912591EA
:10462000359145915591A6F3EF010E941F21FE019E
:104630009701A801DA9469F7DF90EF90FF900F914E
:104640001F91CF91DF91089500240A941616170642
:1046500018060906089500240A9412161306140673
:1046600005060895092E0394000C11F4882352F0D6
:10467000BB0F40F4BF2B11F460FF04C06F5F7F4F8E
:104680008F4F9F4F089557FD9058440F551F59F075
:104690005F3F71F04795880F97FB991F61F09F3F2F
:1046A00079F087950895121613061406551FF2CF58
:1046B0004695F1DF08C0161617061806991FF1CFA8
:1046C00086957105610508940895E894BB276627CF
:1046D0007727CB0197F908950E94D02208F48FEF35
:1046E00008959B01AC0160E070E080E89FE30C94CA
:1046F000EB210E948C230C9432230E94242338F057
:104700000E942B2320F0952311F00C94F4220C949A
:10471000FA2211240C9466230E94432370F3959F80
:10472000C1F3950F50E0551F629FF001729FBB27A8
:10473000F00DB11D639FAA27F00DB11DAA1F649F44
:104740006627B00DA11D661F829F2227B00DA11DF7
:10475000621F739FB00DA11D621F839FA00D611D7D
:10476000221F749F3327A00D611D231F849F600D9E
:10477000211D822F762F6A2F11249F5750409AF0C7
:10478000F1F088234AF0EE0FFF1FBB1F661F771F53
:10479000881F91505040A9F79E3F510580F00C941E
:1047A000F4220C9466235F3FE4F3983ED4F386959D
:1047B00077956795B795F795E7959F5FC1F7FE2BBE
:1047C000880F911D9695879597F9089519F416F419
:1047D0000C94FA220C9435240E944B23B8F39923AD
:1047E000C9F3B6F39F57550B87FF0E94432400245B
:1047F000A0E640EA900180585695979528F4805C91
:10480000660F771F881F20F026173707480730F4F8
:10481000621B730B840B202931294A2BA695179410
:104820000794202531254A2758F7660F771F881FE0
:1048300020F026173707480730F4620B730B840B00
:10484000200D311D411DA09581F7B901842F91588C
:10485000880F9695879508959B01AC010C94792358
:104860000E94D022880B990B08959F3F31F0915000
:1048700020F4879577956795B795880F911D969544
:10488000879597F9089591505040660F771F881FBC
:10489000D2F70895EE0FFF1F0590F491E02D0994D3
:1048A0000F931F93CF93DF938230910510F482E032
:1048B00090E0E091FE05F091FF0530E020E0B0E0EF
:1048C000A0E0309799F42115310509F44AC0281B5E
:1048D000390B24303105D8F58A819B81611571052A
:1048E00089F1FB0193838283FE0111C040815181D4
:1048F0000281138148175907E0F04817590799F4C6
:10490000109761F012960C93129713961C9332969F
:10491000CF01DF91CF911F910F9108950093FE0574
:104920001093FF05F4CF2115310551F042175307BD
:1049300038F0A901DB019A01BD01DF01F801C1CF07
:10494000EF01F9CF9093FF058093FE05CDCFFE01D7
:10495000E20FF31F81939193225031093983288309
:10496000D7CF2091FC053091FD05232B41F42091F8
:104970000601309107013093FD052093FC0520913D
:104980000401309105012115310541F42DB73EB7E1
:104990004091080150910901241B350BE091FC0561
:1049A000F091FD05E217F307A0F42E1B3F0B28172B
:1049B000390778F0AC014E5F5F4F2417350748F098
:1049C0004E0F5F1F5093FD054093FC05819391931B
:1049D0009FCFF0E0E0E09CCFCF93DF930097E9F02A
:1049E000FC01329713821282A091FE05B091FF055F
:1049F000ED0130E020E01097A1F420813181820F99
:104A0000931F2091FC053091FD052817390709F007
:104A100061C0F093FD05E093FC05DF91CF9108950F
:104A2000EA01CE17DF07E8F54A815B819E01411557
:104A30005105B1F7E901FB83EA8349915991C40F0C
:104A4000D51FEC17FD0761F4808191810296840FD8
:104A5000951FE90199838883828193819B838A834F
:104A6000F0E0E0E012968D919C9113970097B9F5D4
:104A70002D913C911197CD010296820F931F2091A9
:104A8000FC053091FD052817390739F6309751F5A7
:104A90001092FF051092FE05B093FD05A093FC0552
:104AA000BCCFD383C28340815181840F951FC81727
:104AB000D90761F44E5F5F4F88819981480F591F74
:104AC000518340838A819B819383828321153105A1
:104AD00009F0B0CFF093FF05E093FE059ECFFD01F6
:104AE000DC01C0CF13821282D7CFFB01DC0104C0EE
:104AF0008D910190801921F441505040C8F7881BD6
:104B0000990B0895F894FFCFA905A90500000006A8
:104B10008000CDCCCC3DCDCCCC3DCDCC4C3E0000AE
:104B2000803FFCA9B1BFF016683F0000803F835171
:104B300079BF58CA723E0000803F0F9CEBBF5249BC
:104B40007D3F0000803F0DE0EDBFA8357D3FB3EA1B
:104B5000733F07CEB1BFB3EA733F61C3533FC3F5A1
:104B600038BFD044D83C2B18153F355E8ABF2B1870
:104B7000153FBA6B893F000000C0BA6B893F000047
:104B8000803F560EC5BF67D5673F0019F3BD6E3431
:104B9000A03E000000000000803F0534F1BFC44289
:104BA0007D3F0000803FB515F3BF363C7D3F61C3BC
:104BB000733FA835C5BF61C3733F45D8503FB6F3B7
:104BC0004DBFA01AAF3D143F163F36AB8EBF143F0A
:104BD000163F2063863F000000C02063863F000030
:104BE00000004A06AA05D705B2060806E605FA053A
:104BF0000000000087095A09B60930095309400925
:104C000031090D0A006E616E00696E66006F76668E
:0A4C1000002C09000A0A002F000022
:107E0000112484B714BE81FFF0D085E080938100F7
:107E100082E08093C00088E18093C10086E0809377
:107E2000C20080E18093C4008EE0C9D0259A86E02C
:107E300020E33CEF91E0309385002093840096BBD3
:107E4000B09BFECF1D9AA8958150A9F7CC24DD24C4
:107E500088248394B5E0AB2EA1E19A2EF3E0BF2EE7
:107E6000A2D0813461F49FD0082FAFD0023811F036
:107E7000013811F484E001C083E08DD089C08234E0
:107E800011F484E103C0853419F485E0A6D080C0E4
:107E9000853579F488D0E82EFF2485D0082F10E0AE
:107EA000102F00270E291F29000F111F8ED06801E7
:107EB0006FC0863521F484E090D080E0DECF843638
:107EC00009F040C070D06FD0082F6DD080E0C81688
:107ED00080E7D80618F4F601B7BEE895C0E0D1E017
:107EE00062D089930C17E1F7F0E0CF16F0E7DF06D8
:107EF00018F0F601B7BEE89568D007B600FCFDCFD4
:107F0000A601A0E0B1E02C9130E011968C91119780
:107F100090E0982F8827822B932B1296FA010C0160
:107F200087BEE89511244E5F5F4FF1E0A038BF0790
:107F300051F7F601A7BEE89507B600FCFDCF97BE46
:107F4000E89526C08437B1F42ED02DD0F82E2BD052
:107F50003CD0F601EF2C8F010F5F1F4F84911BD097
:107F6000EA94F801C1F70894C11CD11CFA94CF0C13
:107F7000D11C0EC0853739F428D08EE10CD085E9AC
:107F80000AD08FE07ACF813511F488E018D01DD067
:107F900080E101D065CF982F8091C00085FFFCCF94
:107FA0009093C60008958091C00087FFFCCF809118
:107FB000C00084FD01C0A8958091C6000895E0E648
:107FC000F0E098E1908380830895EDDF803219F02E
:107FD00088E0F5DFFFCF84E1DECF1F93182FE3DFCA
:107FE0001150E9F7F2DF1F91089580E0E8DFEE27F6
:047FF000FF270994CA
:027FFE00040479
:00000001FF
